:020000040800F2
:10000000C01F002081290008836F00086D290008A7
:100010006D2900086D2900086D2900080000000006
:10002000000000000000000000000000452A000859
:100030006D29000800000000E1290008D5400008F3
:10004000992B0008992B0008992B0008992B000880
:10005000992B0008992B0008992B0008992B000870
:10006000992B0008992B0008992B0008992B000860
:10007000992B0008992B0008992B0008992B000850
:10008000992B0008992B0008992B0008992B000840
:10009000992B0008992B0008992B0008992B000830
:1000A000992B0008992B0008992B0008992B000820
:1000B000992B0008992B0008992B0008992B000810
:1000C000992B0008992B0008992B0008992B000800
:1000D000992B0008992B0008992B0008992B0008F0
:1000E000992B0008992B0008992B0008992B0008E0
:1000F000992B0008992B0008992B0008992B0008D0
:10010000992B0008992B0008992B0008992B0008BF
:10011000992B0008992B0008992B0008992B0008AF
:10012000992B0008992B0008992B0008992B00089F
:08013000992B0008992B00082F
:1001380081F0004102E000BF83F0004330B54FEA90
:1001480041044FEA430594EA050F08BF90EA020FFD
:100158001FBF54EA000C55EA020C7FEA645C7FEA90
:10016800655C00F0E2804FEA5454D4EB5555B8BFB3
:100178006D420CDD2C4480EA020281EA030382EA24
:10018800000083EA010180EA020281EA0303362DB6
:1001980088BF30BD11F0004F4FEA01314FF4801C89
:1001A8004CEA113102D0404261EB410113F0004F9B
:1001B8004FEA03334CEA133302D0524263EB430352
:1001C80094EA050F00F0A780A4F10104D5F1200EF0
:1001D8000DDB02FA0EFC22FA05F2801841F100014B
:1001E80003FA0EF2801843FA05F359410EE0A5F11F
:1001F80020050EF1200E012A03FA0EFC28BF4CF050
:10020800020C43FA05F3C01851EBE37101F0004505
:1002180007D54FF0000EDCF1000C7EEB00006EEB12
:100228000101B1F5801F1BD3B1F5001F0CD349089C
:100238005FEA30004FEA3C0C04F101044FEA4452F3
:1002480012F5800F80F09A80BCF1004F08BF5FEA7A
:10025800500C50F1000041EB045141EA050130BD5A
:100268005FEA4C0C404141EB0101013C28BFB1F56C
:10027800801FE9D291F0000F04BF01460020B1FAB7
:1002880081F308BF2033A3F10B03B3F120020CDA8A
:100298000C3208DD02F1140CC2F10C0201FA0CF068
:1002A80021FA02F10CE002F11402D8BFC2F1200CCD
:1002B80001FA02F120FA0CFCDCBF41EA0C01904083
:1002C800E41AA2BF01EB0451294330BD6FEA0404CC
:1002D8001F3C1CDA0C340EDC04F11404C4F12002B7
:1002E80020FA04F001FA02F340EA030021FA04F3C9
:1002F80045EA030130BDC4F10C04C4F1200220FA20
:1003080002F001FA04F340EA0300294630BD21FA5D
:1003180004F0294630BD94F0000F83F4801306BF23
:1003280081F480110134013D4EE77FEA645C18BF17
:100338007FEA655C29D094EA050F08BF90EA020FAE
:1003480005D054EA000C04BF1946104630BD91EAA6
:10035800030F1EBF0021002030BD5FEA545C05D1A9
:100368004000494128BF41F0004130BD14F58004E8
:100378003CBF01F5801130BD01F0004545F0FE415C
:1003880041F470014FF0000030BD7FEA645C1ABF91
:10039800194610467FEA655C1CBF0B46024650EAC8
:1003A800013406BF52EA033591EA030F41F40021F4
:1003B80030BD00BF90F0000F04BF0021704730B57A
:1003C8004FF4806404F132044FF000054FF000014F
:1003D80050E700BF90F0000F04BF0021704730B510
:1003E8004FF4806404F1320410F0004548BF4042E5
:1003F8004FF000013EE700BF42004FEAE2014FEA3A
:1004080031014FEA02701FBF12F07F4393F07F4F14
:1004180081F06051704732F07F4208BF704793F017
:100428007F4F04BF41F40021704730B54FF460742A
:1004380001F0004521F000411CE700BF50EA01022D
:1004480008BF704730B54FF000050AE050EA0102D6
:1004580008BF704730B511F0004502D5404261EB46
:1004680041014FF4806404F132045FEA915C3FF487
:10047800D8AE4FF003025FEADC0C18BF03325FEA24
:10048800DC0C18BF033202EBDC02C2F1200300FAD5
:1004980003FC20FA02F001FA03FE40EA0E0021FAFA
:1004A80002F11444BDE600BF80F0004002E000BF46
:1004B80081F0004142001FBF5FEA410392EA030F47
:1004C8007FEA226C7FEA236C6AD04FEA1262D2EB91
:1004D8001363C1BFD218414048404140B8BF5B4296
:1004E800192B88BF704710F0004F40F4000020F02F
:1004F8007F4018BF404211F0004F41F4000121F045
:100508007F4118BF494292EA030F3FD0A2F101028E
:1005180041FA03FC10EB0C00C3F1200301FA03F1CC
:1005280000F0004302D5494260EB4000B0F5000FEF
:1005380013D3B0F1807F06D340084FEA310102F1AE
:100548000102FE2A51D2B1F1004F40EBC25008BF60
:1005580020F0010040EA03007047490040EB00002A
:10056800013A28BFB0F5000FEDD2B0FA80FCACF12B
:10057800080CB2EB0C0200FA0CF0AABF00EBC25058
:1005880052421843BCBFD0401843704792F0000F46
:1005980081F4000106BF80F400000132013BB5E799
:1005A8004FEA41037FEA226C18BF7FEA236C21D00F
:1005B80092EA030F04D092F0000F08BF0846704774
:1005C80090EA010F1CBF0020704712F07F4F04D142
:1005D800400028BF40F00040704712F100723CBF55
:1005E80000F50000704700F0004343F0FE4040F47F
:1005F800000070477FEA226216BF08467FEA23633D
:100608000146420206BF5FEA412390EA010F40F427
:10061800800070474FF0000304E000BF10F0004373
:1006280048BF40425FEA000C08BF704743F096435A
:1006380001464FF000001CE050EA010208BF704775
:100648004FF000030AE000BF50EA010208BF7047FC
:1006580011F0004302D5404261EB41015FEA010C11
:1006680002BF84460146002043F0B64308BFA3F109
:100678008053A3F50003BCFA8CF2083AA3EBC253EB
:1006880010DB01FA02FC634400FA02FCC2F120020A
:10069800BCF1004F20FA02F243EB020008BF20F041
:1006A8000100704702F1200201FA02FCC2F12002A7
:1006B80050EA4C0021FA02F243EB020008BF20EA9C
:1006C800DC7070474FF0FF0C1CEAD0521EBF1CEACA
:1006D800D15392EA0C0F93EA0C0F6FD01A4480EAB8
:1006E800010C400218BF5FEA41211ED04FF00063A1
:1006F80043EA501043EA5111A0FB01310CF00040CD
:10070800B1F5000F3EBF490041EAD3715B0040EAF2
:10071800010062F17F02FD2A1DD8B3F1004F40EBC2
:10072800C25008BF20F00100704790F0000F0CF095
:10073800004C08BF49024CEA502040EA51207F3A59
:10074800C2BFD2F1FF0340EAC250704740F4000034
:100758004FF00003013A5DDC12F1190FDCBF00F025
:1007680000407047C2F10002410021FA02F1C2F1D3
:10077800200200FA02FC5FEA310040F1000053EA6F
:100788004C0308BF20EADC70704792F0000F00F0BD
:10079800004C02BF400010F4000F013AF9D040EAC3
:1007A8000C0093F0000F01F0004C02BF490011F457
:1007B800000F013BF9D041EA0C018FE70CEAD15355
:1007C80092EA0C0F18BF93EA0C0F0AD030F0004CD5
:1007D80018BF31F0004CD8D180EA010000F0004089
:1007E800704790F0000F17BF90F0004F084691F047
:1007F800000F91F0004F14D092EA0C0F01D1420281
:100808000FD193EA0C0F03D14B0218BF084608D149
:1008180080EA010000F0004040F0FE4040F4000093
:10082800704740F0FE4040F4400070474FF0FF0C26
:100838001CEAD0521EBF1CEAD15392EA0C0F93EA6D
:100848000C0F69D0A2EB030280EA010C49024FEABF
:10085800402037D04FF0805343EA111143EA101378
:100868000CF000408B4238BF5B0042F17D024FF430
:10087800000C8B4224BF5B1A40EA0C00B3EB510F0B
:1008880024BFA3EB510340EA5C00B3EB910F24BFF4
:10089800A3EB910340EA9C00B3EBD10F24BFA3EB79
:1008A800D10340EADC001B0118BF5FEA1C1CE0D141
:1008B800FD2A3FF650AF8B4240EBC25008BF20F0F4
:1008C800010070470CF0004C4CEA50207F32C2BF48
:1008D800D2F1FF0340EAC250704740F400004FF0E5
:1008E8000003013A37E792F0000F00F0004C02BF16
:1008F800400010F4000F013AF9D040EA0C0093F0E0
:10090800000F01F0004C02BF490011F4000F013B39
:10091800F9D041EA0C0195E70CEAD15392EA0C0FA1
:1009280008D142027FF47DAF93EA0C0F7FF470AFD9
:10093800084676E793EA0C0F04D14B023FF44CAF1C
:1009480008466EE730F0004C18BF31F0004CCAD1B1
:1009580030F000427FF45CAF31F000437FF43CAFED
:100968005FE700BF4FF0FF3C06E000BF4FF0010C0F
:1009780002E000BF4FF0010C4DF804CD4FEA4002F1
:100988004FEA41037FEA226C18BF7FEA236C11D03B
:1009980001B052EA530C18BF90EA010F58BFB2EBEE
:1009A800030088BFC81738BF6FEAE17018BF40F06E
:1009B800010070477FEA226C02D15FEA402C05D122
:1009C8007FEA236CE4D15FEA412CE1D05DF8040BA7
:1009D800704700BF844608466146FFE70FB5FFF73A
:1009E800C9FF002848BF10F1000F0FBD4DF808EDF2
:1009F800FFF7F4FF0CBF012000205DF808FB00BFE3
:100A08004DF808EDFFF7EAFF34BF012000205DF83C
:100A180008FB00BF4DF808EDFFF7E0FF94BF012089
:100A280000205DF808FB00BF4DF808EDFFF7D2FF86
:100A380094BF012000205DF808FB00BF4DF808EDC9
:100A4800FFF7C8FF34BF012000205DF808FB00BF96
:100A58004FEA4002B2F1FE4F0FD34FF09E03B3EBC3
:100A680012620DD94FEA002343F0004310F0004F03
:100A780023FA02F018BF404270474FF00000704759
:100A880012F1610F01D1420205D110F0004008BFF8
:100A98006FF0004070474FF00000704753B94AB9F3
:100AA800002908BF00281CBF4FF0FF314FF0FF306E
:100AB80000F00CB8ADF1080C6DE904CE00F023F895
:100AC800DDF804E0DDE9022304B07047704700BF99
:100AD800034613F8012B002AFBD1181A0138704776
:100AE800430803F05533C01A00F03333800800F090
:100AF8003330184400EB10104FF0013300F00F3082
:100B08005843000E70472DE9F04786468C46084644
:100B1800089E154674461946002B40F0C28085424F
:100B2800B2FA82F245D94AB1C2F1200300FA02FCB6
:100B38002EFA03F3954043EA0C0C94404FEA154E05
:100B4800A8B2BCFBFEF8230C0EFB18CC08FB00F97E
:100B580043EA0C43994528D9EB1808F1FF3704D22A
:100B6800994502D9A8F102072B44A3EB0903A4B2C3
:100B7800B3FBFEFC0EFB1C330CFB00F044EA034401
:100B8800A04214D92C190CF1FF3304D2A04202D987
:100B9800ACF102032C44241A43EA07401EB1D440A6
:100BA800002334607360BDE8F0874746DDE763469D
:100BB800F1E792BB431B01214FEA154EAFB2B3FBDD
:100BC800FEFC200C0EFB1C330CFB07F840EA034329
:100BD800984562D9EB180CF1FF3004D2984502D938
:100BE800ACF102002B44A3EB0803A4B2B3FBFEFC58
:100BF8000EFB1C330CFB07F744EA0344A7424ED90B
:100C08002C190CF1FF3304D2A74202D9ACF102032C
:100C18002C44E41B43EA0040C0E7C2F1200320FA59
:100C280003F1954090402EFA03F303434FEA154E23
:100C3800AFB2B1FBFEFC0EFB1C10190C0CFB07F845
:100C480041EA0041884504FA02F422D969180CF1F6
:100C5800FF3004D2884502D9ACF102002944A1EB47
:100C680008019BB2B1FBFEFC0EFB1C110CFB07F745
:100C780043EA01439F420ED9EB180CF1FF3104D22D
:100C88009F4202D9ACF102012B44DB1B41EA00412F
:100C980092E76046E3E76146F7E76046A3E7634605
:100CA800B7E7834206D916B9002108467BE7C6E9AB
:100CB80000E0F9E7B3FA83F78FB9834201D37245AD
:100CC80008D8BEEB020460EB030301209C461EB962
:100CD800002168E73846FAE7C6E9004CF8E7C7F1AB
:100CE800200CBB4022FA0CF41C432EFA0CF120FA1B
:100CF8000CF3B84001434FEA14490EFA07F5B3FB69
:100D0800F9F81FFA84FE09FB18300B0C08FB0EFAE1
:100D180043EA00439A4502FA07F240D9E31808F17A
:100D2800FF3004D29A4502D9A8F102002344A3EB6C
:100D38000A0389B2B3FBF9F809FB183308FB0EFE66
:100D480041EA03418E452CD9611808F1FF3304D2DA
:100D58008E4502D9A8F10203214443EA0040A0FBD2
:100D68000298A1EB0E014145CE46434602D306D177
:100D78004D4504D2B9EB020E68EB04030138002E8E
:100D8800A6D0B5EB0E0261EB030101FA0CFC22FAC6
:100D980007F34CEA0303F940C6E9003198E74046F7
:100DA800C5E74346D9E700002DE9F8430F46054655
:100DB800002861D0FFF78CFE03285DD9DFF8BC80DE
:100DC80000260024AB5D2BB3A3F130095FFA89F24A
:100DD800092A0DD841462046FFF774FC04464846C8
:100DE800FFF71CFC2146FFF765FB04460136E9E7DF
:100DF8002E2BFBD12E44214D4FF00008A94616F8A2
:100E0800010F3038C3B2092B26D920464146FFF7D7
:100E180051FB04461A492046FFF708FDFFF718FE64
:100E2800054664206843FFF7F9FB01462046FFF7B3
:100E38003FFB1449FFF7FAFC04462846FFF7EEFB90
:100E480007F0FB0701462046FFF734FB532F01D17B
:100E580000F10040BDE8F883FFF7E0FB2946FFF703
:100E6800E5FC01464046FFF725FB494680462846F3
:100E7800FFF728FC0546C2E70020EBE70000204109
:100E88000000C842000070422DE9F04F0446A5B0AA
:100E9800A3685B6C002B40F0A780A3685B6B002BFA
:100EA80040F0AA80A3689B69002BF1D001220DF1C4
:100EB8005301204698470128EAD19DF8532051480C
:100EC800242A04BF0023037001787E29E0D84E4D00
:100ED8004B1CDBB20A2A6A540370D9D100224B4951
:100EE800EA54284606F074FF28B94949284606F00E
:100EF8006FFF002868D03C22002115A806F054FF97
:100F0800414A002310461D4612F8011B09B10F2B58
:100F18005ED1DDF858B0BBF1000F55D01798002806
:100F280052D0199D002D4FD0DDF87880B8F1000F10
:100F38004AD0189B1E783146FFF736FF1A9A177861
:100F4800814639462846FFF72FFF9BF800300E935D
:100F58009BF801300F939BF80230109305469BF8DD
:100F680003309BF804A01193002148469BF805B074
:100F7800FFF75AFD10B909F1004399464846FFF7B3
:100F88003BFACDE9120100212846FFF74DFD08B9CB
:100F980005F100451D9B0D931C9B0A972846CDE93A
:100FA8000B83FFF729FADDE91223CDE90423119B0E
:100FB8000093CDE90801CDE901ABDDE90F230E99D6
:100FC8001448069605F0E2FB0E4B00221A705FE704
:100FD8002C2999D124A901EB830102F8015C41F87D
:100FE8003C0C013310468FE72046984700287FF4D1
:100FF80054AF25B0BDE8F08F2046984700287FF40D
:1010080051AFF6E7200A0020210A0020508D000881
:10101800578D00085E8D000810B5054C204605F078
:10102800B5FB002142F2107006F01BFEF6E700BF88
:10103800A78D000810B51648164C05F0A7FB1648F2
:1010480005F0A4FB1548206006F024FDC8B120680F
:10105800836823B19B6C13B111490022984720681B
:1010680083689B6A03B198470E480F4C05F08EFBC6
:10107800002142F2107006F0F4FD204605F086FBD0
:10108800F6E70A4805F082FB4FF0FF3010BD00BFBD
:10109800BE8D0008A8080020D38D00080C83000826
:1010A800910E0008FF8D0008188E0008EF8D0008CB
:1010B8002DE9F04F91B08407009302F004030293E6
:1010C800C2F3C20303F10103DDF868800392054609
:1010D8000E46059340F0BA81041D30B1072909D89E
:1010E8006FF01B0011B0BDE8F08F01F00706344423
:1010F800C6F10806009B4FF00009591E4FF0040A7C
:101108004FF0FF330193CDF810904F46CB4653462E
:101118000DB1009A22600598002800F3E8809848ED
:10112800009A824203D397488242C0F0E080039A33
:10113800A4EB050E92074FEA9E0000F103810F2FE2
:1011480000F2B180002D00F0058107F140020DEB9F
:10115800020C019A0CF8200C0CF8102C04980130A1
:101168000490E7E07A285DD84B280ED8472859D84C
:1011780029282DD8252852D054D820287AD0233889
:10118800D0F1000B4BEB000B74E04C382E2849D8FB
:10119800DFE800F070484848484848484848484808
:1011A8004B484848484848484859484B4B5959596A
:1011B800704B6D487048184B184848827F4B484818
:1011C8004B487F0000204FF0000B4FF0040A38E036
:1011D8002A38C0B2012202FA00F010EA0E0F49D1F3
:1011E80010F0625C2FD110EA020B43D06046013C3C
:1011F8005444B4FBFAF40AFB04F4002D61D0A3EBC9
:10120800050CA444B4453FF66BAF002868D1042B05
:1012180047D158F8043B2360043404232AE0019A98
:10122800013A01924FF0000B24E011F8010C6C28F0
:1012380034D111F8023C00206C2B8346C5D14FF005
:10124800080A5346D3E708F1070828F007080734C7
:10125800F8E802AB24F0070435B106982044B04200
:101268003FF63EAFC4E900AB08344FF0000B4FF037
:10127800080A534611F8010F002878D0BBF1000F77
:101288007FF470AF2528F5D1019B013301934FF00E
:10129800010B4FF0040AECE7584694E70020834618
:1012A800A5E7082B02D06FF015001BE708F1070827
:1012B80028F00708F8E80223C4E9002308340823C3
:1012C800D8E768B9042B02D108F10408A4E7082B71
:1012D800E9D108F1070828F0070808F10808EDE740
:1012E800059A013A059258F8042B009210E7039AE0
:1012F800900720D5A4EB050E4FEA9E004FF0010C95
:10130800BEF5007FCFD20F2FCDD8F5B107F140023F
:101318000DEB020EC0B2019A0EF8200C0EF8102C3C
:10132800BCF1000F3FF41AAF60F07F000EF8200CFC
:1013380009F101090137C5F10802043406924FF694
:10134800DA7E97E74FF0000CDAE7BCF1000F01D026
:101358000136EFE7029802360028EBD10098CDE974
:101368000631FFF7B5FBDDE906310644E2E7631B0A
:10137800B3F5806F97D23DB9A6F10804E018B1E63D
:101388008C81000880990008029A28609B082B70BD
:101398009DF81030C2B1EB7085F80290B9F1000FDA
:1013A80005D008A80022C5F1010C97420ED1C5F15D
:1013B80001030DF120084FF0000A01930DF1300BE5
:1013C800574512D1601B8DE66B70E5E710F8013BBD
:1013D800190608D50CEB040EB64503F07F033FF65B
:1013E8007FAE04F8013B0132DFE7B9F1000F03D00B
:1013F80098F90020002A17DB029BD3B11AF80B20BA
:1014080004F8012B0022019B18191044B0423FF642
:1014180067AE98F8000004F8010B00990392204683
:1014280006F0B4FC039A14440AF1010A08F1010811
:10143800C6E798F8002055F822300093029B45F83B
:1014480022300098FFF744FB421CDCE76FF00D00E8
:1014580048E600BF2DE9F04F97B000AF90F802A022
:10146800D7F880B03B62CBF3C0030446FA62BB6195
:10147800894641B9457800780AEB800020444D45FB
:1014880017D8A0EB0409E378FB61BAF1000F02D08A
:101498001BF0010F16D1FB6953BBFB6A1BB13A6AFB
:1014A8004946204698474D4628465C37BD46BDE824
:1014B800F08F461C3046FFF70BFB0130304409F132
:1014C8000109DCE7237862687A62FA6A990079612F
:1014D80004EB8301002A40F000814D460E4601EBE3
:1014E8000A094FF000084E454CD101EB0A0610E0FE
:1014F8001BF0020FD1D023789A007A6162687A6271
:10150800FA6A04EB8301002A77D14D4601EB0A06FB
:1015180090461BF0050F0CBF02230123FB62FB69F9
:1015280006EB430A0BF00203BB625645BCD016F823
:10153800021B16F8013C54F82390994B994502D3A5
:10154800984B994536D3BB69002B40D0786A05F093
:10155800F6F800283BD0E9468AB06A46924B5361B8
:101568007B6AC2E906314FF4007313848F4B42F84B
:10157800103F8F4800234FF4125100F087FC023DC2
:10158800CD46D2E716F8013BF96254F82300FFF77D
:101598009FFAD7F88430F96A01304BB1D7F8883010
:1015A80098453EBFD7F8843023F8180008F10108A1
:1015B800054498E7BB6923B1786A05F0C0F80028AC
:1015C800C9D11BF0010F05D1FB6AED1AADE7BB6A63
:1015D800002BAAD04846FFF77BFAD7F8843053B1DE
:1015E800D7F8883098453FBFD7F88420431C22F8A5
:1015F800183008F10108054497E7BAF1000F72D0D6
:101608001BF0040672D0D046002607F14800524667
:101618003B61B96206F0BAFBB96A3B6901EB0A02A1
:10162800BA62FA69F9695200FA60BA6A02EB4102D1
:101638003A610BF00202BA603A69B96A8A4257D134
:1016480062787A621BF0020F32440CBF4FEA5801ED
:1016580000211BF0010FD2B240F09F801BF0040F55
:1016680014BF40460020BB616270A070E1703A6A06
:101678007969FB6A20469847051EFFF615AFBB69D6
:1016880023707B6A6370FB69E37041463A6AFB6AC0
:1016980084F802A007F148009847B0F10008C0F2AA
:1016A800BB807B693A6AA9EB0A01C91AFB68C91AA7
:1016B800D7E90A0398470028C0F2B080A84408EB8D
:1016C80000054FF0000B07F1380AB34572D300212B
:1016D8003A6AFB6A08469847E6E656464FF000081D
:1016E80007F1380093E75646D04697E7B04695E7A6
:1016F800BA6A12F8021BBA6212F8015C284A54F856
:101708002500904202D3274A90421ED3BA6932B1CB
:10171800786A7B6005F013F87B6800288CD1BA687A
:1017280002BB08F1280207F1300C08F101009444CB
:1017380007F1580252FA80F008F102080CF8101C60
:101748005FFA88F800F8105C76E7BA693AB1786A07
:101758007B6004F0F4FF7B6800287FF46DAF1BF01A
:10176800010F09D006F1280207F13000711C161884
:1017780006F8205CCEB25FE71BF0040F3FF45CAFC5
:1017880008F1280207F1300008F1010102EB000816
:1017980008F8105C5FFA81F84EE7002063E700BFA5
:1017A8008C810008809900083E8E00080400000122
:1017B800208600081BF80A3087F8373054F8239041
:1017C800D7F884302BB3D7F888309B4521D2D7F887
:1017D800843033F81B803A6AFB6A012107F137002D
:1017E800984700281ADB0544B8F1000F06D148468F
:1017F800FFF76EF900F101081FFA88F83A6AFB6AE8
:10180800414648469847002808DB05440BF1010B80
:101818005BE74FF00008DEE7454645E6054643E648
:10182800014B1860704700BFA800002080B505462E
:101838000E461746984603F07DFA034606F098FCD4
:10184800DFF81890044649F80030424630463946D9
:10185800A84754F8090001F0A9F800BF08000000E3
:10186800034A536823F0020353600020704700BF07
:10187800002004E0EFF31180102383F31288BFF3F4
:101888006F8F094B1A683AB9084A116841F4807198
:1018980011601168C905FCD51A6801321A6080F315
:1018A8001188BFF36F8F7047B008002000040058FC
:1018B80010B5EFF31184102383F31288BFF36F8FF1
:1018C800134B1A68C2B9BFF35B8F124B012253E85E
:1018D800001F002903D143E800200028F7D1BFF3F7
:1018E8005B8F04D10C4A0D48022105F071FA84F38C
:1018F8001188BFF36F8F10BD012A01BF08490A681C
:1019080022F480720A601A68013A1A60EFE700BF91
:10191800B0080020AC080020F28E00086886000895
:1019280000040058084B1A6842F400721A601A68DA
:1019380042F480621A601A6842F480721A60034B9B
:10194800034A1A60704700BF00400058F8000020A2
:1019580000093D002DE9F047DFF8588004460746A6
:101968004FF0010914B93846BDE8F08794FAA4F598
:10197800B5FA85F509FA05F32E0108EB05156FEAA6
:10198800030A24EA03042B7B002BEBD058F806301B
:101998001B694BB94644042273682846196807EA4C
:1019A8000A0705F0A5F9DDE7284698470028D9D1A8
:1019B800F0E700BF7886000830B51049104889B0B4
:1019C800002206F0BBF90F4D0F4900220023CDE994
:1019D800062300240E23CDE90334CDE901440B4B43
:1019E80000944FF44072284602F054FF08492846F4
:1019F80006F09BF8204609B030BD00BF1D1A00084C
:101A0800A006002008020020000F0020391D000851
:101A1800338F0008014802F095BE00BF680100201E
:101A28002DE9F047804620480F4605F039F906466B
:101A3800002832D000252846BDE8F087237B83B1F3
:101A48002368DB680BB120469847636883F80690E3
:101A580023681B69CBB9636804221968204605F01E
:101A680047F9013610345445E8D3B8F1000FE2D0F5
:101A7800002DDFD02846FFF76DFF0546002FF7D071
:101A88000021642006F0EDF8F2E720469847002888
:101A9800E1D009FA06F31D43E3E7044CDFF810A090
:101AA80005464FF00109DEE7C408002078860008E3
:101AB80088860008014B53F8200070473C890008CD
:101AC80008B5034608462BB1044A136000F074FCBD
:101AD800002008BD6FF01500FBE700BFAC00002038
:101AE80010B5044C237813B9034802F02BFE0123E8
:101AF800237010BDA10A00206801002010B504461B
:101B08000B4805F0CDF85CB1BFF35B8F094B53E888
:101B1800001F013943E80012002AF8D1BFF35B8F98
:101B2800054806F017F90548BDE8104002F00ABE5E
:101B3800BC080020C0080020A00600206801002082
:101B48000020064BBFF35B8F014653E8000F43E8C4
:101B58000012002AF9D1BFF35B8F7047BC08002040
:101B680070B5FFF7EDFF084C084E0546B44200D3A8
:101B780070BD63685B792BB123685B6813B1294634
:101B8800204698471034F1E77886000888860008D0
:101B980010B5044C0449204604F008FF034B1C60B0
:101BA80010BD00BF2C01002028890008B4080020BF
:101BB8000D4A0E48002310B513700D4A13600D4AE4
:101BC8004FF47A711360FFF77BFFFFF7E1FF0A4BD1
:101BD8000A4918468B4200D310BD1A1A5C681211C4
:101BE800013222711033F5E7A20A0020C36C000805
:101BF800BC080020C00800207886000888860008F5
:101C0800014600220148002304F0F1BE2C01002007
:101C1800014804F08ABF00BF2C010020024B014696
:101C2800186804F0D6BF00BFB4080020014805F0CA
:101C38000BB800BF2C01002070B5264B187800287F
:101C480046D0FFF7E5FF054600283ED1224B234C3E
:101C58001B68002B12DD06F06FF80A220023FEF73E
:101C68001DFFD4E90032C01A40F2E93361EB0201EA
:101C7800984271F1000101D3FFF772FFD4E90032F5
:101C880013F57A7342F10002C4E90032BDE87040EE
:101C9800FFF7CCBF63685B7923B1236829461B68CB
:101CA800204698471034B442F4D32846FFF7B6FFCD
:101CB800BFF35B8F0A4B53E8001F013943E800125A
:101CC800002AF8D1BFF35B8FC0E7064C064EEAE75F
:101CD80070BD00BFA10A0020BC08002098060020A3
:101CE800C0080020788600088886000870B50D4D69
:101CF800297861B90120FFF793FE0B4C0B4EB442D3
:101D080006D3FFF799FF0028FBD101232B7070BD84
:101D180063685B791BB1236820469B689847103439
:101D2800EDE700BFA20A0020788600088886000830
:101D380000212DE9F0470846FFF772FE044658B324
:101D48004FF4FA784FF0000906F012FA1B4B1C4AC0
:101D58001B58136033B11B4B1B68092B02DD1A4853
:101D680002F0F0FC194FDFF860A0002544B12046CE
:101D7800FFF7F0FD044618B94FF0FF384FF0FF3970
:101D8800FFF75AFF064628B9B5B942464B465046B2
:101D980002F00CFD3546E9E74FF0FF384FF0FF3908
:101DA800D2E72B689B691BB1002211462846984749
:101DB8001035BD42F5D3E8E7054DFAE70800000005
:101DC800B8080020C00800206801002088860008A4
:101DD8007886000813B5184804F062FF174B1B7883
:101DE80073B1EFF31184102383F31288BFF36F8F5D
:101DF800FFF722FF84F31188BFF36F8F02B010BD85
:101E08000F4B1B68002BF9D050B900220023CDE9F5
:101E180000230C4842F21072002303F091FAEDE718
:101E28000928EBD1074805F095FF074802B0BDE83F
:101E3800104002F087BC00BFC0080020A20A0020A2
:101E4800B8080020A00600206801002010B5064B45
:101E58001B68044698472146A060044804F046FEE3
:101E6800BDE81040FFF7B6BFAC0000202C010020F1
:101E7800044A054B9B1AB1EBD30F34BF52F831001B
:101E88000020704718860008788600082DE9F04F72
:101E98008FB004AFC1F34A28B8600D4691467B6005
:101EA8000C0DB8F1000F63D0002607F114034FF0B2
:101EB800040B4FF00A0AC7F80C80C7E907667E6270
:101EC8000193CDF808B0CDF800A007F11C03F9681C
:101ED80032464846FFF7BEFAB0F5006F03461CD3FA
:101EE8006C468AB0D9F8041004AB2648C3E905014A
:101EF80040F2FF71D9611A464FF400711984224BE0
:101F080042F8103F214833464FF41251FFF7BEFF05
:101F1800A5462C37BD46BDE8F08FC0F30A0804F18A
:101F28001700184420F0070080083B60FFF768FEA0
:101F380068F35325044690B13B68154AC7E908364B
:101F480000F1100107F11403F961CDE900A3CDF800
:101F580008B0F96807F11C034846FFF77BFA68F3F5
:101F680053257B68B9682A46204604F0E1FED0E78D
:101F780004F1170020F007008008FFF741FE04462F
:101F8800EDE700BF488F0008040000013086000814
:101F98000B6D00082DE9F04F87B0DDE91279DDE916
:101FA800105A0446039193469846BFB1CDF8009065
:101FB8003B46524610210020CDF81490FFF778F8E0
:101FC800B0F5006F06460AD3184A194840F2FF7365
:101FD800022107B0BDE8F04F04F003BF3E4605F10B
:101FE8001700304420F0070004F007048008FFF7CA
:101FF80007FE0BF0070BE40044EA8B1444EA46247E
:1020080044EA0554054640B13FB1CDF800903B463F
:10201800524631461030FFF74BF8039943462246A3
:10202800284607B0BDE8F04F04F082BE878F00084D
:1020380030860008406820B1034BC01A40F3CF0037
:1020480070474FF0FF307047188600080EB403B58C
:1020580003AB014653F8042B0448019300F01EFF1C
:1020680002B05DF804EB03B0704700BF4D6E000886
:10207800CA0605D48B064CBF02490349FFF7E6BFE1
:10208800704700BF168E0008BF8F00082DE9F04F7B
:1020980089B09B46149B06939DF84CA0159B05930D
:1020A800169B179E049304460D469046BAF1000FFE
:1020B80000F09D8006F48073079304F017FE06F085
:1020C8000209024600283ED091492046FFF7BEFF8C
:1020D8000746B9F1000F08D016F0440F35D18D49E5
:1020E8002A462046FFF7B2FF074406F0010353B122
:1020F800894B8A4953F82A20894B2046002A08BF71
:102108001A46FFF7A3FF06F48073002B49D006F0A8
:102118000803002B63D1B8F1000F66D0814942460D
:102128002046FFF793FF0546069B3D44002B6DD1E3
:10213800049B002B73D1F30700F1E480314620465D
:10214800FFF796FFD8E00746C3E7774B18680028E3
:10215800CAD0764B4FF47A791B68B5FBF3F54FF488
:102168006163B5FBF0F100FB115509FB05F54FF074
:102178003C0CB1FBF3F203FB1211B5FBF0FEB1FB13
:10218800FCF300FB1E550CFB131109FB05F5009130
:10219800B5FBF0F56649CDE901E52046FFF756FFA6
:1021A800A2E706F00803EBB1624B634953F82A2013
:1021B8002046FFF74BFF0546B8F1000F05D05949F7
:1021C80042462046FFF742FF0544BBF1000FABD063
:1021D8005A495A462046FFF739FF0544A4E74FF00D
:1021E800000BE1E706F00805E6E745469CE7BBF18A
:1021F800010F069B06D1002B64D1049B002B7BD0DA
:1022080000250CE0002BF8D04D485CE04D48069BBB
:102218004D49224604F062FA049B002B68D0DFF88F
:102228002C81DFF82C91049F3146102F204628BFBF
:102238001027FFF71DFF4FF0000B5D4545DC059BA0
:1022480049461A782046FFF701FF4FF0010B1BF0B3
:10225800070F03D141462046FFF7F8FE5F453BD9FB
:10226800059B494613F80B202046FFF7EFFE0BF1BC
:10227800010BBBF1100FEAD1364920464FF0000B95
:10228800FFF7E4FE5A46059B9A5CA2F120015F29FC
:1022980028BF2E2230492046FFF7D8FE0BF1010B4C
:1022A800BBF1100F1DD01BF0070F03D1414620468C
:1022B800FFF7CCFE5F455A46E5D841462046FFF772
:1022C800C5FEEBE71F485546A1E741462046FFF704
:1022D800BDFE0BF1010BB0E720492046FFF7B6FE23
:1022E800C5E7059B3B440593049BDB1B04939AD1EC
:1022F800BAF1000F7FF41FAF204609B0BDE8F04FD8
:1023080004F093BD064A05492046FFF79FFE15E7EE
:10231800C78F0008CB8F00084C890008F08F000891
:10232800C28F0008F38F0008CC080020C8080020DE
:10233800D48F000860890008F78F0008FD8F000817
:10234800836E00084D6E0008A52E00080A9000084C
:10235800029000080C9000080E90000808900008F1
:1023680073B542F20F738B4228BF0B4605680F4ABC
:1023780004460521684603F021F863680C495B6848
:1023880006460B22284604F042FD63683246694639
:1023980028465B6804F03BFD636806495B681B22BE
:1023A800284604F034FD02B070BD00BF1E9100083D
:1023B8002D90000811900008074A0021012390423F
:1023C80006D8064A01B901231360054B1860704707
:1023D80040085B000121F2E740420F00C8080020D6
:1023E800CC080020F8B5074F0D4604464618B442FD
:1023F80001D12846F8BD14F8011BBB6801485B6889
:102408009847F4E7EC820008014B0360002070470E
:10241800A88900082DE9F047064600AF0C460029B8
:1024280036D0E9468AB0D1E90012A3686D46214842
:10243800A8464FF0050AC5E90501C5E9072348F88C
:1024480010AF1D48424600234FF42151FFF71EFDEF
:10245800CD46D4E903126369AD461848C5F810A003
:10246800C5E90501C5E907231348002342464FF48F
:102478002151FFF70BFDCD46E369114A0E480121B2
:1024880004F0AFFCA3690F4A0B48012104F0A9FC32
:10249800012E07D1EFF305830B4A0748103B31465D
:1024A80004F09FFC2146304601F0B2FFBD46BDE86E
:1024B800F08700BF7390000850860008A2900008BB
:1024C800D1900008E09000080E91000830BFFFF797
:1024D800FDBF00BF2DE9F0410B4EDFF8308006EB61
:1024E8000807CC1B054632460949204605F04EFC34
:1024F800A01942460021083C05F056FCC5F880406A
:1025080007F10800BDE8F0810000000004000000A9
:1025180088860008054B5A699B689A421FBF044A7F
:10252800536843F080535360704700BFF40900209C
:1025380000ED00E070B5244C06460D4623482449BA
:1025480004F022FDA36AD9043CD52048214904F0AF
:102558001BFD1720A36A1A0504D51C481E4904F060
:1025680013FD1820184CA36A9B0512D51B49174860
:1025780004F00AFDA36BA26A110409D5184A13488E
:10258800012104F02EFC1EB1A36A23F40043A362C8
:1025980019200D4CA36A5A0504D50C48114904F0BA
:1025A800F3FC1A20A36ADB0504D508480E4904F099
:1025B800EBFC1B20044A936A43F47F439362002395
:1025C8002B7070BD1620C5E700ED00E050860008AE
:1025D8002191000837910008489100085B91000894
:1025E8007491000889910008A491000810B5204C46
:1025F8002049214804F0C8FCA36A990136D51E4831
:102608001E4904F0C1FC1E20A36ADA0104D51A4849
:102618001B4904F0B9FC1F20154CA36A1B0304D501
:102628001548184904F0B0FC2120A36A590304D5C1
:102638001148154904F0A8FC22200D4CA36A9A03FE
:1026480004D50D48114904F09FFC2320A36ADB033D
:1026580004D509480E4904F097FC2420044A936ADB
:102668006FEA03436FEA1343936210BD1D20CBE763
:1026780000ED00E0BC91000850860008D4910008E5
:10268800E7910008019200081F9200084492000890
:102698005E9200082DE9F8432F4D804689462F4861
:1026A8002F49174604F070FCAB6ADA0627D52D4986
:1026B8002A4804F069FC1124AB6A1B0704D52A498F
:1026C800264804F061FC1224234DAB6A9E0718D5F6
:1026D8002649224804F058FC6E6BAB6A1C0637D5B5
:1026E800234A1E483346012104F07BFBB9F1000F51
:1026F80003D0AB6A23F08003AB62132403E01024F9
:10270800DAE76FF01506144DAB6AD80704D51949F6
:10271800124804F039FC1424AB6AD90602D4AB6A17
:102728009A070BD50C4B5B681B0507D5414630460D
:1027380000F0E6F910B180F309880224064A936A8A
:1027480043F0FF03936200233B702046BDE8F88303
:102758006FF01506D1E700BF00ED00E050860008D5
:10276800899200089F92000848910008D2920008B8
:10277800EA920008009300082DE9F041664B8AB000
:10278800D3F8048000AF0446C8F30805002686F392
:102798001188BFF36F8F02F07F43B3F17F4F07D1EA
:1027A80002F00C03082B12D15C495D4804F0ECFBE5
:1027B800002634460023FB71EB1E092B00F28A80A9
:1027C800DFE803F00A80837C888888888886100779
:1027D8004CBF0C460126EDE7524951484E4D04F0D6
:1027E800D3FB0023FB71EB6A9A0705D54E494C4889
:1027F80004F0CAFB002332E0EB6A002B01DA4B49F4
:10280800F5E7EB6A5B00F5D54949454804F0BCFBA0
:102818006B69A26943F480736B61BFF34F8FBFF399
:102828006F8F6B6932F8022C23F480736B61BFF3EE
:102838004F8FBFF36F8F4DF602739A4208D0AB6A81
:10284800DBB273B3FA1D01212046FFF723FF37E0FF
:102858002368384A3248012104F0C3FA2368FA7918
:10286800DAB907F1080504F1200C206861682A46E6
:1028780003C2083464451546F7D17A6A002E45D05C
:10288800C2F3080121B96FEA52226FEA42227A6242
:1028980007F108011846FFF7BDFD2837BD46BDE81A
:1028A800F081AB6A13F47F4F04D0F91D0120FFF7C4
:1028B80041FE05E0AB6AB3F5803F9BD3FFF796FE78
:1028C8000346CCE7FA1D0021BEE7F91D0020EEE71C
:1028D80019498CE7194A1A4B18F4F87FE8468AB068
:1028E80018BF13466A461749C2E905134FF4007327
:1028F8001384103D144BD56142F8103F084800235B
:102908004FF41151FFF7C2FAC54673E722F4FF727C
:1029180022F00102BBE700BF00ED00E04D93000884
:1029280050860008789300088F930008B093000839
:10293800BE930008DD930008F9930008349300085B
:102948001F9300081D94000804000001044B5A69F5
:1029580042F010025A615A6922F008025A6170471F
:1029680000ED00E0EFF30880EFF3098101B572464E
:10297800FFF702FF01BD00BF0A4880F30888102056
:1029880080F3118808484FF40461401880F30988DF
:10299800EFF314800221084380F31488BFF36F8F8C
:1029A80004F0FAFAC01F002040120020084B9B6870
:1029B80083420BD1EFF3058343B1064B5A6842F0CB
:1029C80080525A605A6A22F400425A6202F0B8B938
:1029D800F409002000ED00E015498A684FF0300046
:1029E8001044EFF3098C80E8F01F102080F3128860
:1029F800BFF36F8F0F4F4FF000664A698A603E60E1
:102A0800D2F880000C4C2060D2F884000023C2F871
:102A1800843080F3118804B5104600F0D7F8BDE87B
:102A2800044002F1300090E8F01F8CF309887047E9
:102A3800F409002004ED00E0F40800201EF0040F63
:102A48000CBFEFF30880EFF30980816911F8021CCD
:102A58000229FFD001B5724604F08BFA01BD00BF10
:102A680040B2002807DB044A4109012300F01F0097
:102A7800834042F82130704700E100E040B200286E
:102A8800A8BF00F1604001F10101B8BF064B4FEA51
:102A98000111ACBF00F5614000F00F00C9B2B4BF2E
:102AA800195480F80013704714ED00E0044B054AF0
:102AB80023F07F039360BFF34F8FBFF36F8F70478F
:102AC8000000000800ED00E042F8203C009B42F8BE
:102AD8001C3C0A49019B42F8183C029B42F8143CF2
:102AE80021F001014FF0807342F8043C42F8081CC1
:102AF8000023203A0265C0F8843070473518000872
:102B0800094A0346906870B113F1160F006F05D09B
:102B1800A0F140029A4205D8834203D2814228BFDD
:102B28000020704700207047F409002008B51546BA
:102B38000C4A0D4B9060D0F880201A600E4600F0C9
:102B480045F82C4686F309880020044B9847204610
:102B5800002100220023024C20470000BD6F00081E
:102B680035180008F4090020F4080020014B102251
:102B78001A61704700ED00E0044800231021C218D4
:102B880001333E2B82F80013F9D1704700E100E0D1
:102B980008B5EFF30583064A103B02EBC30152F870
:102BA800330049688847BDE80840FFF7B3BC00BF59
:102BB8004C830008024B034A0348012100F08AB8FD
:102BC8000000012000000020A8890008026F054BC2
:102BD800403A1A60044A4021C3E90112184601210B
:102BE80000F082B8F808002000000B1508B503466D
:102BF8001048D0F89020C2F30722013A934207D92F
:102C08000D480E4A012104F0ECF86FF0150008BDDC
:102C1800C0F898300A6822F01F021A4342F01002E6
:102C2800C0F89C208A6842F00102C0F8A02018462B
:102C3800EDE700BF00ED00E0488600083494000886
:102C4800F0B50E4685B01F4604460025B5420DDA9C
:102C5800606810B397B1431E18420AD0104A114851
:102C68002B46012104F0BDF86FF01502104605B09F
:102C7800F0BD1F28F2D921680B42EFD123680193D8
:102C880004F0ACF9A36801A90343D0B20393FFF79A
:102C9800ADFF10F1160FE7D0421C01350C34D5E713
:102CA8005A94000848860008044B0522C3F894206B
:102CB800BFF34F8FBFF36F8F704700BF00ED00E089
:102CC800BFF35F8F024B0022C3F89420704700BF08
:102CD80000ED00E010B5034C01232278FFF7B0FFA8
:102CE800207010BDA40A002008B50B4A00231278F2
:102CF800FFF7A6FF10F1160F07D0084A0021D2F8F7
:102D08009030C3F30723984200DB08BDC2F898004F
:102D1800C2F8A0100130F2E7A40A002000ED00E09C
:102D28002DE9F04357485849D0F890300D68C3F35F
:102D380007239D4285B000F2A180FFF7C1FF4968D3
:102D48000022954201F10C011AD1504C504F2570C8
:102D58006846FFF759FBDFF83C81DFF83C910646EF
:102D68000025AE421FD1237846490020D1F8902093
:102D7800C2F3072293427BDBFFF796FF00204CE06B
:102D8800C0F8982051F80C3C23F01F03134343F07C
:102D98001003C0F89C3051F8043C43F00103C0F81C
:102DA800A0300132CDE7009800EB05114FEA051C71
:102DB800CB683B40B3F5000F44D00AD8B3F5001FE9
:102DC8002ED0B3F5800F34D0B3F5801F10D0013565
:102DD800C7E7B3F1807F3ED0B3F1007FF7D150F859
:102DE8000C3088684A6804F0F9F840F4802009E05B
:102DF80050F80C3088684A6804F0F0F840F08850C1
:102E080040F43020039001A92078CDE90123FFF791
:102E1800EDFE002828DA6FF0150005B0BDE8F08354
:102E280050F80C3088684A6804F0D8F840EA08007E
:102E3800E8E750F80C3088684A6804F0CFF840EAB0
:102E48000900DFE750F80C3088684A6804F0C6F8D3
:102E580040F08270D6E750F80C3088684A6804F071
:102E6800BDF840F08870CDE7237801332370AEE7D2
:102E7800C1F89830C1F8A000013377E74FF0FF3070
:102E8800CBE700BF00ED00E0B4890008A40A0020E9
:102E98000000F0FF0000081100000206F0B587B03E
:102EA80007460E4614460021102268461D4604F0C7
:102EB8007BFF02238DF802302A46054B01932146F9
:102EC8006846CDE9047602F03FFB07B0F0BD00BFCD
:102ED8000570000808B5024B1B689847002008BD1C
:102EE80004090020034B044A1860937843F0020356
:102EF8009370704704090020B800002008B50649FF
:102F0800064821F00701C1F1005202F5803203F0B2
:102F1800A8FB002008BD00BF0720002008090020EA
:102F2800044B184400230133994200F8012BFADCC2
:102F3800704700BF080100202DE9F843124F0646EC
:102F48004FF000094FF00108347854FA89F5284603
:102F580000F0D6F870B1284600F0F2F857F835308E
:102F680043B107EBC5054C4404F01F04696808FA2F
:102F780004F09847727809F101095FFA89F39A42D7
:102F8800E2D2BDE8F88300BF14090020034670B1FF
:102F9800B0FA80F2C2F11F02D2B206498856064A38
:102FA800D2F880100B43C2F88030FFF759BDFF22DA
:102FB800F3E700BF0801002000080058034AD2F8D0
:102FC800803023EA0003C2F88030704700080058B8
:102FD800032921D8DFE801F0020C10190F4B1A68F9
:102FE80022EA00021A605A6822EA00025A60704710
:102FF8000A4B1A680243F5E7084B5A6802435A60BD
:103008001A6822EA00021A607047044B1A680243E1
:103018001A605A6810435860704700BF000800588B
:1030280030B5B0B1B0FA80F3C3F11F03DBB20B487F
:1030380050F833408C4204D100EBC3056D689542CB
:1030480005D044B940F8331000EBC30042600020BB
:1030580030BDFF23EBE76FF00F00F9E714090020FC
:1030680060B1B0FA80F3C3F11F03DBB2044A002158
:1030780042F8331002EBC30251607047FF23F5E7B3
:103088001409002000F00302043292000F23934039
:1030980043EA900000F003030233064A52F8232063
:1030A800030C02EA104093FAA3F3B3FA83F3D8406F
:1030B800704700BF0000014013B50E4C204604F0D5
:1030C800E9FC40B90C480D4A012103F081FE6FF07C
:1030D800120002B010BD4FF480735422CDE90023D2
:1030E800A3681B681BB1694620469847F1E76FF053
:1030F8005700EEE70C820008288600089A9400081A
:1031080000F01F0201213F2808B501FA02F2034628
:1031180005D90848084A03F064FE002008BD074B9B
:103128001F2894BFDB68DB6A9A430CBF012000208C
:10313800F4E700BF28860008B99400080008005882
:1031480000F01F0201213F2808B501FA02F20346E8
:1031580006D90748074A03F044FE6FF0150008BD7A
:103168001F28054B02D8DA600020F8E7DA62FBE78F
:1031780028860008B994000800080058F8B50C79AA
:1031880014F0200306D03649364803F0B9FF6FF033
:103198001500F8BD0A78092A01D03349F4E74A78BE
:1031A800042A01D03149EFE746684D883268006942
:1031B80004F01F04BDB143F6FF718D421CD0DFF847
:1031C800B0C006F1180737F8021F41EA0C0189B2AE
:1031D8008D4209D00133082BF5D12649214803F047
:1031E8008FFF2549D0E72B4696F92A10012905DCDF
:1031F800002933DB0020CCE70723F5E702292DD18E
:1032080090F9A6104E1C01D08B420ED180F8A63042
:1032180051694FF48070A04021EA00015161516961
:1032280021F007010B435361E4E790F9A7104D1C07
:1032380001D08B4210D180F8A73055690F484FF460
:103248008071A1406840014069405161516921F095
:10325800700141EA0313E6E70949BFE70949BDE7F9
:10326800F99400081886000830950008459500086C
:1032780000C0FFFF5F950008E495000804FFFF0306
:1032880082950008AE95000838B5314C2368DA06F7
:1032980005D510232F493048236003F031FF2368F8
:1032A8005B0745D5226C2D4CD4F89430991CC4F892
:1032B80094101A8094F8A53094F8A4200133DBB256
:1032C8009A4284F8A530254632D1002384F8A530E7
:1032D800636E9BB3E36FB4F888203BB1204804F1D8
:1032E80064019847012811D0022822D0B4F8883008
:1032F800B4F884209A421CD90133A4F88830A36F0B
:103308004BB9BDE83840154803F00BBFD4F89830E6
:10331800C4F89430F3E7BFF35B8F55E8003F5A1EBB
:1033280045E800210029F8D1BFF35B8F012BE8DCC9
:1033380038BDA36F13B10B4804F00CFD4FF6FF73B3
:10334800A4F8A6300848BDE8384001F0FBB900BF32
:1033580000240140FA9500081886000800000020A3
:103368002C830008080000205000002073B5466830
:1033780035680446284603F013FF606803F0C4FE6E
:10338800337E13B1606803F0BFFE63680C48996828
:103398008368DB687BB90B490B4803F0B1FE019BDE
:1033A8001BB90A49084803F0ABFE284602B0BDE83D
:1033B800704003F0DCBE01AA98470028EFDAEAE77C
:1033C8000C82000873960008188600088D9600087D
:1033D8002DE9F347D0F804800669D8F8007005464F
:1033E800DFF8E8A0504604F055FB48B93849394899
:1033F80003F086FE6FF01204204602B0BDE8F087A5
:103408004FF6FF73A6F8A630DAF80830C6F89050E1
:10341800D5F804901B68D9F80040D9F808108BB18A
:103428005046984770B9D9F8102022F00043B3F1FC
:10343800804F02D0B2F1004F1DD1236923F04043E1
:1034480013432361D8F8140001AA002104F0AFF84F
:10345800041E07DB019B00221979186800F048FB5D
:10346800041E14DAA31C12D01B4A1A482346012151
:1034780003F0B7FCC0E71949D1F8083723F47013F3
:103488001343C1F80837236923F04043D9E7BB68E1
:1034980023F0104323F0170343F08053BB6014203C
:1034A80004F0E9FAD8F8043003B198472846FFF742
:1034B8005DFFFB6823F45C63FB60B36C1BB906F12A
:1034C800400001F03FF9002496E700BF0C82000895
:1034D800A196000818860008C09600080020014040
:1034E8002DE9F04F036985B006460D4603F1400803
:1034F8004FF0FF324FF0FF33404601F057F9736841
:103508003469D3F80090AB68C4F894306F68C4F895
:10351800A0703846FDF7E4FA002384F8A40084F884
:10352800A53067B98149824803F0EAFD6FF01504B8
:10353800404601F007F9204605B0BDE8F08F7268F3
:10354800106892F92D102C328B4202DB11D1794987
:10355800E9E752F8047F95F810C0BCEBD74F32D199
:10356800C7F30422C7F3423BC7F3024AFFB2FF2F57
:103578002BD133697068D3F8A0204FF0010C0023D9
:10358800002A39D190F92B204AB90268C3F31103F4
:10359800936213689904FCD54FF40053136094F8B0
:1035A800A4202B68520013B19B8903FB0222EB680D
:1035B80093422DD25E48009201215F4A03F01BFC22
:1035C8006FF00B04B4E70133BEE7C3590392D3404D
:1035D8000BEA03039A45CCD003F0E2FD7368039A23
:1035E8001968CB590BFA02FB23EA0B030AFA02FA11
:1035F80043EA0A03CB51BCE792FAA2F1B1FA81F18E
:103608000CFA01F747EA81610B4322EA0702B7E7A0
:10361800D6F804B095F811A0DBF80000BAF1000F55
:1036280055D10369DA0705D503F0BAFD036923F01C
:1036380001030361AB7C13B13046FFF797FE4846A0
:1036480003F095FD1023C9F80030D9F8043043F091
:103658000403C9F804302F460FCF04F164060FC6DF
:103668003B683360002626662B68002B5AD00FCBA8
:1036780004F1780585E80F006566A4F888600028DD
:1036880050D0BFF35B8F54E8003F44E80062002A43
:10369800F9D1BFF35B8FA06F633046F1000164225C
:1036A8000023FDF7FBF90022CDE90001002304F116
:1036B800080001F045FE4FF0FF324FF0FF3304F1F0
:1036C800500001F073F800B12066246E30E7BAF1BB
:1036D800080F25D80369DB0705D403F061FD0369EA
:1036E80043F001030361154B53F82A709BF92C3002
:1036F800012B9FD1124B53F82AA0036903F01C0336
:103708009A4504D1036903F4F0739F4292D003F001
:1037180047FD036947EA0A0723F4FE733B4388E73A
:10372800084900E7204603F0FCFCC4E7DE960008E1
:1037380018860008F396000806970008608A0008B3
:103748003C8A00082B97000838B5294B18680B8865
:10375800C3F30B030B2B0D46144622D813B96FF095
:1037680085002FE0013B0A2BF9D801A252F823F07B
:10377800C1370008E3370008A5370008DB37000821
:10378800DF370008C1370008C1370008C137000813
:1037980067370008CF370008CF3700084FF4FA40E2
:1037A8000AE003F6B873C3F30B031C2BD7D8114AEE
:1037B80022FA03F3DB07D2D520602B68B3F5805FCC
:1037C8000ED2002038BD00F0E1F806235843400827
:1037D800F2E70948F0E70020EEE74FF40040EBE796
:1037E800C3F313330133B0FBF3F02060E9E700BF04
:1037F800F8000020110111110024F40070B5604D8B
:1038080003F073FD284603F06FFD00F02DFD4FF027
:10381800B0435C4AD3F8083103F00F0352F8236031
:103828001368B0FBF6F6B5FBF3F5AE4202D22846B4
:1038380000F08CFD03F0D1FC012809D04FF0B04214
:10384800136843F48073136003F0C7FC0128FBD1AD
:103858004FF0B044D4F8943043F00103C4F89430E6
:10386800D4F894309B07FBD5FEF704F8D4F89030D1
:1038780043F00103C4F890304FF0B043D3F89020E0
:103888009407FBD5D3F8902042F08002C3F890202B
:103898004FF0B044D4F890301805FBD5FEF708F87F
:1038A800A36803F00C030C2B1CD103F096FC012831
:1038B80007D0236843F48073236003F08EFC01284B
:1038C800FBD14FF0B0439A6822F0030242F00102A4
:1038D8009A609A6802F00C02042AFAD19A6822F0D7
:1038E800F0029A604FF0B044236823F0807323609D
:1038F80023689901FCD4E36823F0606343F0007304
:10390800E360E36843F08073E36000F043F8236802
:1039180043F0807323604FF0B0431A689201FCD5DE
:103928009A6822F0F0029A609A6842F003029A605C
:103938004FF0B042936803F00C030C2BFAD1AE425F
:1039480002D3284600F002FD0F4B0D4A1A604FF0D3
:10395800B04300209A6822F4E0629A609A6822F4E0
:1039680060529A60D3F8082122F0F002C3F80821C7
:10397800D3F8082122F00F02C3F8082170BD00BF58
:10398800006CDC02208C0008F8000020004870471A
:103998000024F4004FF0B0430549DA681140054AA5
:1039A8000A43DA60DA6842F08052DA60704700BF92
:1039B8008C80FF1F0206002008B5074804F06AF84B
:1039C80038B10648FFF78EFA0448FDF729FF0020B2
:1039D80008BD6FF01200FBE7EC820008E939000827
:1039E8000A2838B5074D044604D1AB680D215B6839
:1039F80028469847AB6803485B68E1B29847204679
:103A080038BD00BFEC8200082DE9F843D0F80480E7
:103A1800D0F81090D8F8080017460D461E4603F057
:103A280041FBB7F5001F044616D12846D8F80840D0
:103A3800FFF728FB84420CD1294603F033FB0446E8
:103A4800FFF7BCFA2046FFF70BFB00212046FFF7E3
:103A5800BFFA0020BDE8F883B7F5800F20D0B6F193
:103A6800806F19D0B6F1C06F18D0B6F1007F1AD1A7
:103A7800022610494A462046FFF7D2FAB0B9D8F8CC
:103A88000810284603F013FB20463146FFF7A0FA3A
:103A98002046FFF77BFADCE70126EAE70326E8E79A
:103AA8006FF08500D6E76FF01500D3E76FF00F00D1
:103AB800D0E700BF6175000838B50369044658604F
:103AC8000A4D284603F0E6FF60B1AB6861681B68E1
:103AD8000C3123B12846984700EAE07038BD6FF0F2
:103AE8005700F9E76FF01200F8E700BF0C820008F2
:103AF8002DE9F0471E4F044600EBC1060025B442ED
:103B080001D1002014E02068C30600F01F0911D479
:103B1800656845F02005C0F3481AC0F34420192809
:103B280023D857F82080B8F1000F0DD16FF012009C
:103B3800BDE8F087B9F1100F04D0B9F1110FEAD13F
:103B48006568E8E73025E6E7404603F0A3FF00286C
:103B5800ECD04B462A460AF00F01404603F012FD0E
:103B6800002804F10804CADAE2E76FF01500DFE77D
:103B7800D48A0008012912D0022907D089B900681F
:103B8800094BC01A18BF0120000370470068064B94
:103B9800984214BF4FF440504FF400507047002033
:103BA80070474FF4005070470080004043681B681E
:103BB80003F1080252E8002F42F0010203F1080065
:103BC80040E800210029F3D1094A934203D0A2F525
:103BD8007442934203D15A6842F040025A6053E853
:103BE800002F42F4807243E800210029F7D1704782
:103BF8000038014043681B6803F1080252E8002FAF
:103C080022F0010203F1080040E800210029F3D165
:103C1800094A934203D0A2F57442934203D15A68E9
:103C280022F040025A6053E8002F22F4807243E8E1
:103C380000210029F7D170470038014070B51D46B2
:103C4800094B002633F812203346FCF727FF0902F8
:103C580041EA10616C08000220182A46334641F1F7
:103C68000001FCF71BFF70BD388D00082DE9F043FB
:103C780083B043680269D3F8008000AF06460C465B
:103C880000293FD01068D9688368DB686BB13A1D9A
:103C98009847051E0CDA354A3548012103F098F893
:103CA80028460C37BD46BDE8F0836FF05705F2E7AC
:103CB800304B984549D1D7F80480DFF8BC900025EF
:103CC8002346AAB240460021FFF7B8FFA0F540708E
:103CD80048451AD901350C2DF2D16D468AB03368A2
:103CE8006A462649D461C2E905134FF40073138468
:103CF800234B42F8103F1E4800234FF41151FEF7A2
:103D0800C5F8AD466FF01505CAE71A4EF36A23F0F9
:103D18000F032B43F3621B4B33F81520002319467E
:103D28004046FCF7BBFE090241EA10616308000245
:103D3800C01822464FF0000341F10001FCF7AEFE27
:103D4800C0F31300F0600025AAE7D8F8003023F488
:103D58000043C8F800307B6803EB5403B3FBF4F36B
:103D68000F2BBAD99BB2C8F80C30ECE7AD97000816
:103D78007086000800800040FFFC0F00DB970008F9
:103D880004000001388D00082DE9F84306460A7939
:103D98004068336904685F68012A0D461AD0931E8B
:103DA800D3F1000848EB03084FEA88286979FFF740
:103DB800E1FE95F80690B9F1020F03460DD0B9F16E
:103DC800040F0ED0AAB1033A012A0CD86FF085006F
:103DD800BDE8F8834FF4C068E8E73AB94FF080507F
:103DE80008E0002AF2D14FF4805003E0033A012A98
:103DF800ECD90020B3F5805F30D0B3F5405F2FD009
:103E0800002B0CBF012303239942DFD1414603F065
:103E180019FC8145DAD1EB7963B1012B22D1134B1F
:103E28009C4207D0A3F574439C4203D003F570531A
:103E38009C42CBD1236823F00103236029463046F6
:103E480003F07AFD0028C1DB236843F001032360F7
:103E580095E8030087E803000020B9E70023D3E7CB
:103E68000223D1E7032BDAD0B0E700BF00380140C6
:103E78002DE9F04383B00469466805466A48206026
:103E880000AF03F007FE58B9684A6948012102F0FB
:103E98009FFF6FF0120420460C37BD46BDE8F08343
:103EA8002068F16883681B683BB9624A6048012151
:103EB80002F08EFF6FF05704EDE79847044600BB09
:103EC800306A3A1D002103F072FB041EE3DB7B68B5
:103ED800002219791868FFF70BFE041EDBDBD5F802
:103EE80004802B69D8F80040D3F80490236823F0A5
:103EF80001032360D8F8040003F0CCFD48B94E4A0A
:103F0800C3E74C4A4A48012102F062FF002CC2DB99
:103F1800D6E7D8E901018368DB6803B1984754E81C
:103F2800003F43F00C0344E80032002AF7D1494629
:103F3800284603F001FD002802DA6FF01504AAE70D
:103F480098F814301BB1A36843F00803A36098F8ED
:103F580015301BB1636843F40043636098F816306A
:103F68001BB1636843F48033636098F817301BB162
:103F7800636843F40033636098F81830002B3CD032
:103F88002E4B9C421CD0A3F574439C4218D003F5D9
:103F980070539C4214D06C4688B02B686A462849F6
:103FA800C2E905134FF400739383264B42F8103F80
:103FB8001F4800234FF4E251FDF768FFA546BCE710
:103FC8006B681A68936843F480439360236898F891
:103FD800192023F0787343EA42532360236898F842
:103FE8001A2023F4F81343EA0243236098F81B309D
:103FF8001BB1A36843F40043A36098F81C301BB1BD
:10400800236843F000532360236843F001032360CF
:10401800E3699A02FCD5E3695B02FCD5736A28461A
:104028009847002437E700BF0C820008A1960008D3
:1040380070860008F29700081298000800380140BE
:104048002D9800080300000110B54FF0E0230F4938
:104058009C691A6908689B690D4902F4803234B971
:1040680093B903464AB90A681044C01A10BD002B18
:1040780008BF03460AB9A342F5D90A6802440A6090
:104088004FF0E0221269EEE70446F3E7F00900205A
:10409800E40900200A4B102283F82320094B4FF42F
:1040A80096521A60084B002018604FF0E02341F246
:1040B800BF225A6198611A6942F007021A61704773
:1040C80000ED00E0F0090020E4090020684620F037
:1040D80007018D4601B5FFF7B7FF0D4B0D4A18686C
:1040E80011680844106000221A600B4A13684FF4E4
:1040F8009651C01AB0FBF1F001FB0033136001F0D8
:104108001FF8FEF707FABDE801408546704700BF73
:10411800E4090020EC090020E80900202DE9F0411D
:10412800334E91B1421C0AD14FF0E022136923F0BB
:10413800010313614FF07F433360BDE8F0813468B9
:10414800012807DC4FF000080BE0431C3468F7D166
:1041580040F6A65040F6A7539842A8BF184600F16B
:10416800FF38EFF31185102383F31288BFF36F8FA5
:10417800FFF76AFF4FF0E023DFF878C09F69DCF8AB
:10418800003018441C4B00221A601C4B1A68831A12
:104198002AD44FF4965E0EFB083303F595531F336C
:1041A800B3FBFEF1131A0EFB0133B3F5806F144A0B
:1041B80038BF4FF48063934228BF13464FF0E02284
:1041C800336091698F42A7EB010703F1FF3338BFD2
:1041D8003F195361384400239361CCF8000085F3FC
:1041E8001188BFF36F8FA8E74FF48063E6E700BF3D
:1041F800F0090020EC090020E4090020E80900206B
:1042080080E8FF0038B5EFF31185102383F3128897
:10421800BFF36F8F084B1C68084B1B68E41AFFF745
:1042280013FF85F31188BFF36F8F4FF49653204423
:10423800B0FBF3F038BD00BFEC090020E80900200E
:1042480038B5EFF31185102383F31288BFF36F8F0E
:10425800044B1C68FFF7F8FE85F31188BFF36F8FD6
:10426800204438BDEC09002010B54FF0B0439A68DF
:10427800D96812F00C0205D00C2A4AD101F00303C8
:10428800012B53D14FF0B0412C480B6813F00803B1
:1042980006D00B6813F0080337D1D1F8941007E063
:1042A8000C68240756BFD1F894300968C3F3032378
:1042B80050F82330002A0CBF184600204FF0B041B8
:1042C8008A6802F00C020C2A1ED1CA6802F00302A6
:1042D800022A31D0032A06D10B68194A13F4801F29
:1042E800184B08BF13464FF0B042D068D168D26867
:1042F800C0F306205843C1F302130133B0FBF3F0B7
:10430800530F0133B0FBF3F010BD0B68C3F3031375
:10431800CEE7042A07D0082A08D11B6813F48013B3
:1043280007D10748CAE708480023C7E7002318460B
:10433800C4E704480023C1E7034BD4E7E08B000837
:1043480000127A0000093D000024F4001F4A0346C9
:1043580007CA84B00DF1100C0CE9070018463BB3EE
:104368001B4B1B6803F4C063B3F5007F22D1194BC4
:10437800984229D8184B984224D9184B98428CBF98
:1043880002200120164904AB03EB80000B6850F8AB
:104398000C2C23F0070313430B60086800F0070098
:1043A80082421CBF086800F00700831A584258412F
:1043B80004B070470B4B984206D80B4B984201D972
:1043C8000A4BDBE70020DDE70020F1E788860008DC
:1043D80000040058006CDC0280A81201005125027C
:1043E800004000580024F400808D5B00001BB700DB
:1043F80010B50446FDF77AFC0348044A012102F08F
:10440800E7FC204603F051FB508600087A98000824
:104418002DE9F843044600AF0D46EFF31188102349
:1044280083F31288BFF36F8F0428294A98BF294B5A
:104438009668117C94BF53F82030274BE9468AB020
:104448006A462648C2E9073140F201339384244B77
:10445800C2E9050442F8103F224800234FF43151C5
:10446800FDF714FDCD4645B1EB69C3F3080323B14D
:104478001D4A1C48012102F0ABFC2EB1304603F066
:1044880057FB08B1037803B91848E9468AB06A4669
:10449800174BD061C2E9053640F201331384154B3E
:1044A80042F8103F00230F484FF41151FDF7EEFC7E
:1044B8002946CD462046FFF79BFF88F31188BFF3B6
:1044C8006F8F3046FEF772FABD46BDE8F88300BF2D
:1044D800F4090020608C0008899800089F9800085B
:1044E8000500000150860008C79800089798000842
:1044F800E89800080400000138B50A4B53F820403A
:10450800013053F82050A54200D838BD606830B15A
:10451800037FDB0701D403F0D0FA0834F3E72368FC
:104528009847FAE7748C000870B52A4B2A4C2B4D33
:10453800012286B003201A70FFF7DEFF00F038FF73
:104548000420FFF7D9FF2646AE4204F1300410D309
:1045580000F0FCFA204C224EAC4226D300F00AFBB5
:10456800FCF768FD1F4A137B23F00103137306B0A1
:1045780070BD54F80C3C059354F8103C049354F85F
:10458800143C039354F8183C029354F81C3C0193D0
:1045980054F8203C009354E90A2354E90C0100F034
:1045A8002BF954F8303C5E65CDE7D4E90A23B3F122
:1045B800FF3F08BFB2F1FF3F05D052EA0301206870
:1045C80003D100F093FB3034C6E73146183000F0D1
:1045D80027FDF8E7A50A0020408500087085000837
:1045E800377C00086807002008B50348034A002103
:1045F800121A03F079FA08BD78010020A80A0020F1
:1046080070B5164E164D1749902386B003FB006609
:1046180001220023CDE904230F22CDE902320193C0
:10462800142303FB005504464FF4A07000FB04114B
:104638000D4B00954FF48072304600F0DDF8737B27
:104648000A4AEE6023F0040373734FF4046304FB17
:10465800033313442C746B6006B070BDD806002079
:10466800F4090020801A0020F97A0008401200207E
:10467800BFB50020FFF740FF2A4B83F308882A4C78
:104688002A4F636943F4007363610025F02384F8BB
:104698002230E57725766576A57684F82050636A1A
:1046A80043F4E0236362FEF751F9FEF75FFA4FF037
:1046B800FF33A362E362FEF733FBFEF77BFAFDF7F5
:1046C80077FA1B481B4C00F011F903F0E2F9FDF7EB
:1046D80029F90120FFF710FF0220FFF70DFF00F076
:1046E8007DFA154B15495C61154B05930123CDE9FE
:1046F80003534FF480623B46CDE9015500952046AF
:1047080000F07AF8627B064622F0040220466273C3
:1047180003F04AFA2846FFF773FF3A463146204627
:10472800FEF704FA801A002000ED00E03145000889
:10473800F807002068070020F4090020C01B0020AB
:104748002A8F000870B5EFF31186102383F31288BF
:10475800BFF36F8F0468A0421BD0D4B1D4E90032F4
:1047680013605A60637B002523F002036373C4E976
:104778000055A56004F1180003F0B2FA2046C4F809
:10478800885003F011FA31460748BDE8704000F040
:10479800B7B9D0E902329A4218BF0133836086F371
:1047A8001188BFF36F8F70BDA60A002013B5EFF311
:1047B8001181102484F31288BFF36F8F846844B189
:1047C800013C846081F31188BFF36F8F002002B031
:1047D80010BD52EA030406D181F31188BFF36F8F2D
:1047E8006FF00F00F3E7CDE900230246014800F01F
:1047F80065F9ECE7A60A00202DE9F043073285B0F9
:1048080022F007020E461F461099017300F1580363
:104818007F32C0E916330446002322F03F02042108
:10482800836041733F2A0F98A073C4E90633E3738A
:1048380006F14009A2F1400805D883F31188BFF3B7
:104848006F8F084602DFB51829462046FDF742FE5D
:1048580007300E9B20F00700A067C4E91C9802935C
:104868000D9B01932D1A0C9B00932A463B4631461B
:104878002046FEF729F90023636584F86C30044B61
:104888009B6803B1DB6FE367284605B0BDE8F0839A
:10489800F4090020F0B587B000250595109D049512
:1048A8000F9D03950E9D0295DDE912760D9D0195EC
:1048B8000C9D00950446FFF79FFFB6F1FF3F08BF28
:1048C800B7F1FF3F05D056EA070305D1204600F0AF
:1048D8000DFA204607B0F0BD3A46334604F11800F9
:1048E800014900F09DFBF4E7377C000840F2011312
:1048F80083810023C0E91C33C367014B986070476C
:10490800F40900200A4A93686FF00A01C3F8881076
:104918000849C3F884004B6843F080534B60002378
:1049280083F31188BFF36F8F9368D3F888007047BB
:10493800F409002000ED00E070B590F90D20437BEC
:10494800002A36DBD90634D11B4C63F07F0322469C
:10495800437352F8183FE169934207D1C0E9002137
:104968000860E06111E09942F8D01B68002BF5D08F
:1049780090F90E5093F90E60B542F4D0AE42F2DDD4
:104988005968C0E9003108605860A569954200D0AF
:1049980005B9E568A3685A7BD20604D1DA897F2A6B
:1049A80001D9AA6932B1AB4202D0284600F096FA82
:1049B800656170BD6361FCE7F409002038B590F9C2
:1049C8000D20437B002A014604DA03F07F0343737A
:1049D80003F0B0F80D4D2A46AB6852F8184F9442D0
:1049E80000D004B9EC688B4207D05A7BD20604D1B8
:1049F800DA897F2A01D9A2692AB1A34202D02046C6
:104A080000F06CFA23466B6138BD00BFF409002042
:104A1800B3F1FF3F08BFB2F1FF3F03D0024918309E
:104A280000F0FEBA704700BF377C000870B590F9F7
:104A38000D20437B002A014604DA03F07F03437309
:104A480003F078F84B7B1C4C63F07F0322464B73D2
:104A580052F8183FE069934207D1C1E9002001608C
:104A6800E16111E09842F8D01B68002BF5D091F96C
:104A78000E5093F90E60B542F4D0AE42F2DD58689C
:104A8800C1E9003001605960A569A368954200D06A
:104A980005B9E5688B4207D05A7BD20604D1DA897A
:104AA8007F2A01D9AA692AB1AB4202D0284600F070
:104AB80015FA2B46636170BDF4090020F8B50E4B5A
:104AC8000C4611460D4A98681060DDE90667EFF359
:104AD8001182102282F31288BFF36F8F9D682846D7
:104AE80003F03AF8284632463B46FFF791FF204646
:104AF800BDE8F840FFF706BFF4090020140A0020BB
:104B080049B9EFF3058030B9054B5A699B689A4259
:104B180001D0FFF7F7BE81F31188BFF36F8F70479D
:104B2800F4090020034648B9EFF3058232B9064A72
:104B380051699268914201D0FFF7E4BE83F311886E
:104B4800BFF36F8F704700BFF4090020EFF31181A6
:104B5800102383F31288BFF36F8F054B9A68D37BBA
:104B6800013BD37381F31188BFF36F8F704700BF88
:104B7800F409002070B5EFF31186102383F312882F
:104B8800BFF36F8F144DAB68DA7B0132DA732A46B4
:104B980052F8184F944200D004B9EC685A7BD206F8
:104BA80004D1DA897F2A01D9A2692AB1A34202D0A5
:104BB800204600F093F923466B6186F31188BFF312
:104BC8006F8FEFF31180102383F31288BFF36F8F79
:104BD800BDE87040FFF7A6BFF4090020024B03F1BF
:104BE8001802C3E906227047F409002070B5EFF3F4
:104BF8001186102383F31288BFF36F8F1B4CA168B3
:104C0800E0690B68814214BF1A46002249680B60AC
:104C18005960A368E1692AB9154AC3E900210B6004
:104C2800E3610CE093F90E0092F90E50A84218D0F7
:104C3800854216DD5168C3E900210B605360A56900
:104C48000B4B9D4200D005B9E568A3689D4202D090
:104C5800284600F043F965613046BDE87040FFF72B
:104C680051BE8A42D8D01268D5E700BFF4090020A7
:104C78000C0A0020F8B550EA010306460C4603D199
:104C8800FFF7B4FF0020F8BDEFF31187102383F37B
:104C98001288BFF36F8F124D124BA8681860FFF788
:104CA8008DFEA868104923463246183000F0B8F93E
:104CB800AA68537B43F00403537304463846FFF74E
:104CC80021FEAB68D3E90A23B3F1004F08BF002ADD
:104CD800D8D103F02DF8201A20EAE070D3E700BFFE
:104CE800F4090020140A0020377C000838B504466F
:104CF800EFF31185102383F31288BFF36F8F437B83
:104D08005B070FD5183002F0EBFF637B23F0040339
:104D180020466373FFF710FE29460548BDE8384072
:104D2800FFF7EEBE85F31188BFF36F8F38BD00BF64
:104D3800A60A0020014B9868704700BFF4090020BC
:104D48002DE9F8430446077BEFF31185102383F31D
:104D58001288BFF36F8F437B190705D585F3118838
:104D6800BFF36F8FBDE8F883D90943F008025DD11E
:104D78004273A36813B1204602F0E4FE04F1180060
:104D880002F0AEFFA66D04F15808B04511D04FF0FF
:104D9800000976B1304602F0D5FE06F1180002F09F
:104DA8009FFFC6F888903046FFF7C6FDA66DB04550
:104DB800EFD1DFF8C080D8F808309C423ED1EFF33D
:104DC8000589B9F1000918BF4FF00109D8F8186032
:104DD800294A964200D00EB9D8F80C60B34202D0E6
:104DE800304600F07BF82046C8F8146002F0DFF87F
:104DF800B9F1000F02D02148FFF778FDD8F8083044
:104E08009C4231D1EFF3058373BB227BD20718D4C0
:104E18002846FFF777FDFB07A4D5002383F3118805
:104E2800BFF36F8F0423184602DF9BE703F07F036D
:104E380043F00803437302F07DFE9AE74FF0000940
:104E4800C4E785F31188BFF36F8F83F31188BFF32D
:104E58006F8F0423184602DFEFF31180102383F3CA
:104E68001288BFF36F8FD4E785F31188BFF36F8F74
:104E7800D1E700BFF40900200C0A0020F807002041
:104E8800044BC01A044BC0105843044B01221A5457
:104E9800704700BF88080020ABAAAAAAA60A00206B
:104EA800C3897F2B12D80A4B1B6863B1094B90F951
:104EB8000E201B689A4209DB437BDB0606D1064BB2
:104EC800C31A18BF012303F0010070470023FAE753
:104ED800FC000020180A0020D806002070B50E4BF0
:104EE8000E4C1E7C06EB460304EBC3040546204625
:104EF80002F0F6FE0A4B002228469A55FFF7D0FF2B
:104F080048B1084B08491A68013A2046D317BDE84A
:104F1800704000F085B870BDF409002088080020B2
:104F2800A60A0020FC000020894E000838B5EFF3DF
:104F38001185102383F31288BFF36F8F104B114A2A
:104F48009C681068A04206D1FFF7C8FF85F3118856
:104F5800BFF36F8F38BD00211B7C11600A4AD35CF8
:104F6800002BF3D02046FFF79BFF0028EED0637B91
:104F7800DB0602D12046FFF759FD2046E4E700BFD3
:104F8800F4090020140A0020A60A00200748084A4D
:104F9800084908B5121A02F0A9FD0748074A084946
:104FA800BDE80840121A02F0A1BD00BF00000020B1
:104FB80078010020809900080000002000000020EF
:104FC80080990008024B1868984208BF0020704773
:104FD80000010020034B1B680BB9FFF713B9002031
:104FE800704700BF1C0A002030B570B10B4B5B68DE
:104FF80098420AD0036843B1D3E90421D0E90445B3
:10500800121941EB0501C3E90421D0E9003213600C
:105018005A600023C0E9003330BD00BF0001002002
:10502800B3F1FF3F08BFB2F1FF3F2DE9F84F044647
:10503800994615461F467AD08160EFF311881023F0
:1050480083F31288BFF36F8FB9F1000FDFF8E4A084
:1050580020DBFFF7BFFFDAE90027013549F1000936
:105068002D1849EBE073C4E90453AD18064643EB29
:1050780007074FF00109FFF7A5FFDFF8BCE0DEF8EE
:1050880004A00346EBB9C4E900EACAF80040CEF828
:10509800044028E0DAE900126FF001035B1A4FF0D0
:1050A800FF3161EB02025B1B62EB0902012B72F11B
:1050B8000001BCBF01230022C0E904324FF00009FF
:1050C800D9E7D3E9041CD4E904208A4270EB0C0B1D
:1050D80024DA891A5A686CEB0000C3E90410C4E9A1
:1050E800003214605C60FFF76DFF84420ED1134BF1
:1050F8001B685BB9B9F1000F02D1FFF76BFF0646D9
:10510800304602F0D6FD0021FFF708F888F3118831
:10511800BFF36F8F28463946BDE8F88F521A60EB07
:105128000C009A45C4E90420ADD01B68AAE7002505
:105138002F46EFE7A0080020000100201C0A0020ED
:105148002DE9F047EFF31185102383F31288BFF39D
:105158006F8FDFF8A490DFF8A480C9F80000FFF78C
:1051680031FF00260027D9F80030D8E900ECD9171C
:1051780050B1D0E90442A34271EB020A1CDAE41AE6
:1051880062EB0102C0E9044213EB0E034FF0000486
:105198004CEB01012046C8E90031C9F8004002F093
:1051A80088FD2146FEF7BAFF85F31188BFF36F8F9C
:1051B800BDE8F047FFF7BABE14EB0E024CEBE47300
:1051C800C0E90467C8E90023FFF70EFF85F31188DB
:1051D800BFF36F8F83689847EFF31185102383F32C
:1051E8001288BFF36F8FD9F800301B1BC9F8003045
:1051F800FFF7E8FEB7E700BF1C0A0020A008002060
:1052080010B5EFF31184102383F31288BFF36F8F67
:10521800FFF7E0FE054A0346D2E90001181841EB02
:10522800E37184F31188BFF36F8F10BDA0080020CD
:10523800F8B50546EFF31187102383F31288BFF3FF
:105248006F8F036823B187F31188BFF36F8FF8BDA1
:10525800D0E90A46611C46F10002022972F10002F7
:1052680036D3012C76F10002BCBF01241E46013C56
:1052780046F1FF3602F060FD013041F100010019EE
:1052880046EB0101012871F1000130DB02F054FD09
:10529800013041F100016FF00203001946EB0101F2
:1052A80083426FF000438B4126DB02F045FD01305D
:1052B80041F100016FF00102001946EB0103121AD7
:1052C8004FF0FF3161EB03031C492846FFF7A8FEA6
:1052D8002B6B01332B632B6A93B93C462B4653F84F
:1052E800185F9D4200D0D5B984F31188ADE76FF0FF
:1052F80001024FF0FF33E7E700224FF00043E3E7F6
:1053080087F31188BFF36F8F2B6A28469847EFF30E
:105318001184102383F31288BFF36F8FDEE72846CA
:1053280002F051FC0023C5F8883084F31188BFF3DC
:105338006F8F2846BDE8F84002F036BC39520008A5
:105348002DE9F04105461C4690461F46EFF31186AD
:10535800102383F31288BFF36F8FB4F1FF3F08BFA8
:10536800B2F1FF3F05D186F31188BFF36F8FBDE817
:10537800F081002C09DB012A74F10003BCBF012273
:10538800002412F1FF3844F1FF37284602F0A8FC48
:10539800DDE906010023C5E90A012B6342463B46C5
:1053A80028460249FFF73CFEDDE700BF39520008F6
:1053B800014801F0EBB900BF4D9900080CB430B5B5
:1053C8008BB004460D462022002102A802F0ECFC16
:1053D80002238DF80A30002D0C4B0393069412DB40
:1053E80001D06B1E1C440FAA0E99079402A80192C3
:1053F80000F0AAF815B1069B00221A700BB0BDE8A0
:10540800304002B070470024EDE700BF6781000814
:105418002DE9F04101260746B24201DCBDE8F081E2
:105428003B461F4613F8014B002CF7D0252CF8D12A
:105438001C78252C07F10207F2D00023DFF804813D
:105448009C461D461F2D18D8A4F1200EBEF1100F42
:1054580009D9A4F1300EBEF1090F1ED80A2404FBA5
:1054680003E3202504E028FA0EFE1EF0010F06D003
:1054780017F8014B002CE5D128E07F2D1CD8A4F1AA
:10548800300EBEF1090FE9D9242C10D1BCF1000F60
:1054980046D0B34246D00023EAE724F0040EBEF11A
:1054A8002A0FF8D06C2C09D145F08005E0E724F0EC
:1054B800040EBEF12A0FEED06C2C22D06C2C1BD817
:1054C800682C23D06A2C28D04C2C26D0BCF1000F95
:1054D800A4D0B445A0D144F02007A7F1650CBCF1D5
:1054E800020F0B6801D9612F1ED1073323F0070380
:1054F80008330B6001368EE7742CB9D07A2CB7D0FC
:10550800E4E72C0648BF45F40075CDE7EC0548BF35
:1055180045F4007545F48075AAE745F42075A7E7BA
:105528009C46B8E76324D6E7692C02D007D8632CD9
:1055380003D02F0601D5AC05D7D40433D9E7732C93
:10554800F6E700BF892801002DE9F04F95B04368C0
:105558000393837880469807CDE9081217D50D92F2
:105568000B4600251F78A7B1252F16D001330793C6
:10557800039B414638469847002805F1010580F20B
:10558800398498F8023043F0040388F802304FF069
:10559800FF35284615B0BDE8F08F5F789A1C252F97
:1055A8000792E5D000242646A246A346BBF11F0F6A
:1055B80032D8A7F12003102B0AD8DFE803F024091A
:1055C800092A0909091B09090922092709091900D2
:1055D800A7F13003092B2DD92A2F39D154B90D9BA6
:1055E8001BF0400F53F8042B0D9329D0164601E009
:1055F8004BF0010B079B13F8017B0793002FD5D1C4
:105608005BE04BF0020B4BF0040BF3E74BF0080B9D
:10561800F0E74BF0100BEDE7BBF17F0F3FD8A7F198
:105628003003092BD8D81BF0400F03D00A2202FB05
:105638000636DFE70A2202FB0A3A4BF0200BD9E7CD
:10564800B2F1000AF9DACAF1000A4BF0280BD1E7E7
:105658002E2F05D11BF0400F9BD14BF0400BC9E713
:10566800242F1CD1002C00F04281099B0D931BF0C4
:10567800400F0AD1524608980DA9FFF7C9FE0D9BA5
:105688001A1DD3F800A00D92B4E7324608980DA968
:10569800FFF7BEFE0D9B1A1D1E680D92AAE76C2F20
:1056A80000F0128100F20981682F00F015816A2F3D
:1056B80000F01A814C2F00F0178134B1099B08982B
:1056C8000D9322460DA9FFF7A3FE002E47F02009EF
:1056D800B8BF2BF0400BA9F16503BCBF1FFA8BFBC9
:1056E8000026022B40F20881B9F1610F40F0678271
:1056F800FF4307F0200306930D9B073323F00703AE
:105708001BF0400FD3E9000103F1080208BF4FF076
:10571800FF36069B0D9200930EAA334602F08BFCCF
:105728000130C3B2B3424BF4C054049301DB049B71
:105738005E1E01230E9F0593A3464FF0700907F1E3
:105748000903122B0DD907F16303C62B40F20F8111
:1057580007F2E73340F2CE72934294BF0323042347
:1057680005939DF83C2002F00C0312F0010240F072
:1057780019811BF0020F40F012811BF0040400F0A5
:10578800F880002B40F0118120231BF4405F1FD1CB
:10579800049A5032002E6A4408BF0126133A04992D
:1057A80021B112F8011D302900F036811BF0100FCD
:1057B800049A18BF3246391DC0F23381B74280F2CD
:1057C8003081BA424BF4005B40F32D817E1C961B5E
:1057D8001BF400520A9200F0288127EAE77401348A
:1057E80003B10134002E00F02881721C1444A24534
:1057F800CCBFAAEB040400241BF0090F04D12C44ED
:10580800A54240F01F81002443B118464146039B3E
:105818009847002805F10105FFF6B3AE1BF4006FA9
:1058280013D0039B4146302098470028FFF6A9AEC5
:10583800069BC3F178004146039B00F0F8009847A7
:10584800002805F10205FFF69CAE1BF0080F05D1F4
:105858002C44AC4240F00281254600240A9B002BD0
:1058680000F01C8127EAE77AA7EB0A077642049B37
:10587800BB4284BF0EABFB180AF1FF3A88BF5879C8
:10588800039B98BF3020564505F10109414600F3B6
:10589800EF809847002807F10107FFF672AEBAF1CA
:1058A800FF3F08D1039B41462E2098470028FFF66A
:1058B80068AE05F102094D46D9E7742F3FF49AAE58
:1058C8007A2F3FF497AEF8E61BF0800F18BF4BF421
:1058D800007B4BF0800B8DE61BF4807F18BF4BF4E8
:1058E800007B4BF4807B85E64BF4207B82E62646E2
:1058F800B3465446B2467DE6FF4307F020030693BD
:105908000D9B073323F007031BF0400F03F1080238
:1059180008BF0626B9F1650FD3E900010D9213D12E
:10592800731C0022DBB24BF4805B1446112BCDE9CB
:10593800002428BF11230EAA00F0FCFAC3B2049376
:1059480002230E9F0593FAE6B9F1660F05D14BF4D1
:10595800005B344601221123E8E7F3B2012B4FF034
:10596800000238BF012314464FF06509DEE7022321
:10597800F6E6002B3FF409AFBAF1030F3BDC9DF8C4
:105988003C30A64E13F0080FA54B08BF1E463746FD
:10599800B94617F8010BB0BBAE1BB1447BE033BB73
:1059A8002B23F2E62BBB2D23EFE62022BAF1040FBE
:1059B80013DD1BF0080FAAF104040FD12C44039B3C
:1059C8000492414620209847002805F10105FFF67A
:1059D800D8ADA542049AF2D19AB10024039B41465E
:1059E80010469847002805F10105C8DAC9E52B22B9
:1059F800DCE72D22DAE71BF0080FAAF10304BED179
:105A0800DCE71446BBE7069BC01A4146039BC0B2BD
:105A180098470028BCDAB4E504990139C9B2049161
:105A2800BDE6561ED4E60026D2E61BF4006F059AA2
:105A38000CBF032405241444D2E61BF0100F18BF32
:105A48000134D4E60B934146039B20209847002855
:105A58000B9B05F10105BFF6D3AE92E5039B4146CA
:105A680030209847002805F10105BFF6F2AE88E519
:105A780098470028FFF685AD1BF0100F0BD0BAF140
:105A8800FF3F08D105F1020941462E20039B9847A4
:105A98000028FFF676AD4D464C4433E29DF83D00B4
:105AA800039B414698470028FFF66BAD002E69DD41
:105AB800039B41462E2098470028FFF662AD4FF021
:105AC800010A049B9A45BBBF0EAB5344302058795A
